:020000040800F2
:1000000020080020A9060008C5060008C906000847
:10001000CD060008D1060008D50600080000000043
:10002000000000000000000000000000D9060008E9
:10003000DD06000800000000E1060008E5060008F3
:10004000E9060008ED060008F1060008F5060008BC
:10005000F9060008FD06000801070008050700086A
:10006000090700080D070008110700081507000818
:10007000190700081D0700082107000825070008C8
:10008000290700082D070008310700083507000878
:10009000390700083D070008410700084507000828
:1000A000490700084D0700085107000855070008D8
:1000B000590700085D070008610700086507000888
:1000C000690700086D070008710700087507000838
:1000D0008B030008790700087D07000881070008E6
:1000E00085070008890700088D07000880B571485A
:1000F000006850F001006F4908606F4801686F4860
:1001000001406D4801606B4801686D4801406948D5
:1001100001606848006830F48020664908606648DD
:10012000006830F4FE00644908605FF41F00654910
:10013000086000F04BF85FF000606349086000F071
:1001400001F801BD0020002000205B48006810F08D
:100150000C00002804D0042806D0082808D026E087
:100160005A485B49086025E058485949086021E031
:100170005148016811F470114F48006810F4803044
:10018000890C891C002804D1524841435048016021
:100190000CE049480068800304D54E4841434C4870
:1001A000016003E0494841434948016002E0474893
:1001B00047490860404800684749C0F30310085C9D
:1001C00043490968C14042480160704780B500F06A
:1001D00001F801BD82B00020019000200090354858
:1001E000006850F48030334908603248006810F4E9
:1001F000003000900198401C01900098002803D125
:100200000198B0F5A06FF0D12A480068800302D5AC
:100210000120009001E0002000900098012847D1C3
:100220002E48006850F010002C4908602B480068E8
:1002300080088000294908602848006850F00200C2
:10024000264908601C4800681B4908601A48006875
:10025000194908601848006850F480601649086021
:100260001548006830F47C10134908601248006893
:1002700050F4E810104908600E48006850F0807093
:100280000C4908600B4800688001FBD50A480068EB
:1002900080088000084908600748006850F00200A4
:1002A000054908600448006810F00C000828F9D1DE
:1002B00002B0704700100240041002400000FFF836
:1002C000FFFFF6FE0810024008ED00E000127A0081
:1002D0000000002000093D00040000200020024032
:1002E00000B587B001214FF4804000F081F8012172
:1002F000082000F06DF84FF4C06000F08DF8242065
:100300008DF8000001208DF8030000208DF8010019
:1003100001208DF80200684600F083F803208DF874
:1003200006004FF42040ADF8040018208DF80700B7
:1003300001A9234800F0B0F80020ADF80800002023
:10034000ADF80A000020ADF80C000020ADF80E005A
:100350000020ADF810000020ADF812000020ADF82C
:1003600014000020ADF816000720ADF8180002A90F
:10037000144800F0F3F801226021124800F01BF944
:100380000121104800F009F9FEE710B501210D48E0
:1003900000F027F90028F9D00B480478601C0A49BE
:1003A0000870084800F01BF90849E4B208550648EF
:1003B0000078062802D100200349087010BD000013
:1003C000000C0140003800401C00002014000020F8
:1003D000C9B2002905D00E49096808430C490860D4
:1003E00005E00B49096831EA0000094908607047D7
:1003F000C9B2002905D007490968084305490860C2
:1004000005E00449096831EA0000024908607047C4
:10041000181002401C1002401A4908431A4908608B
:100420007047002100210F23C17800291ED01649F2
:10043000096811F4E061D1F5E061090AD1F1040223
:10044000CB40417811FA02F281780B401A43120135
:100450000E490378CA540121027812F01F0291401C
:100460000B4A0078401142F8201009E0012102787F
:1004700012F01F029140074A0078401142F8201004
:10048000704700000000FA050CED00E000E400E019
:1004900000E100E080E100E070B4002200220022D0
:1004A000002200220022CB7813F00F03CA78D20674
:1004B00001D58A7813430A78120621D006680024F1
:1004C0001BE0CA78482A17D10122A240026113E03A
:1004D0000125A5400A882A40AA420DD1A2000F2575
:1004E0009540AE4313FA02F232431600CA78282A26
:1004F000E7D10122A2404261641C082CE8D30660C7
:100500000A88B2F5807F27DB4568002421E00122BC
:1005100014F1080612FA06F60A883240B24217D1E0
:10052000A2000F269640B54313FA02F22A431500A3
:10053000CA78282A04D1012614F10802964046619F
:10054000CA78482A04D1012614F1080296400661AF
:10055000641C082CDBD3456070BC704710B40022CB
:10056000038813F441530C884A8814438A8814433F
:10057000CA8814430A8914434A8914438A89144354
:10058000CA89144323430380838B4FF2FF721340C5
:100590008383098A018210BC7047C9B2002904D044
:1005A000018851F04001018004E002884FF6BF71DC
:1005B0000A400280704700230023C9B20909C9B26A
:1005C000012313FA01F1D2B2002A03D08288114329
:1005D000818003E0828832EA01018180704780894E
:1005E000704700220089084201D0012000E000206D
:1005F000C0B2704730B5016884684218416802EBA8
:100600005103C9070BD54C4409E012F9011B12F83C
:10061000015B002904F8015B05D5491CF9D19A4218
:10062000F3D10C3030BD491EF1D5F8E710B50749BC
:1006300079441831064C7C44163404E00A68081DDD
:10064000114488470146A142F8D110BD08000000BE
:1006500014000000A1FFFFFF38010000240000008B
:100660000000002000F00BF8002801D0FFF7DEFFAB
:100670000020AFF30080FFF733FE00F002F8012006
:10068000704700F001B800000746384600F002F855
:10069000FBE7000080B5AFF30080024A110018208C
:1006A000ABBEFBE726000200014880470148004737
:1006B000ED000008B9060008AFF30080AFF300803A
:1006C000FFF7D0FFFFF7FEBFFFF7FEBFFFF7FEBF4C
:1006D000FFF7FEBFFFF7FEBFFFF7FEBFFFF7FEBF4E
:1006E000FFF7FEBFFFF7FEBFFFF7FEBFFFF7FEBF3E
:1006F000FFF7FEBFFFF7FEBFFFF7FEBFFFF7FEBF2E
:10070000FFF7FEBFFFF7FEBFFFF7FEBFFFF7FEBF1D
:10071000FFF7FEBFFFF7FEBFFFF7FEBFFFF7FEBF0D
:10072000FFF7FEBFFFF7FEBFFFF7FEBFFFF7FEBFFD
:10073000FFF7FEBFFFF7FEBFFFF7FEBFFFF7FEBFED
:10074000FFF7FEBFFFF7FEBFFFF7FEBFFFF7FEBFDD
:10075000FFF7FEBFFFF7FEBFFFF7FEBFFFF7FEBFCD
:10076000FFF7FEBFFFF7FEBFFFF7FEBFFFF7FEBFBD
:10077000FFF7FEBFFFF7FEBFFFF7FEBFFFF7FEBFAD
:10078000FFF7FEBFFFF7FEBFFFF7FEBFFFF7FEBF9D
:100790000300A24A04F8000701020304060708093F
:0207A000F70060
:04000005080006B930
:00000001FF
